:100000000C9481010C94A9010C94A9010C94A901F0
:100010000C94A9010C94A9010C94A9010C94A901B8
:100020000C94A9010C94A9010C94C40E0C94410FDA
:100030000C94A9010C94A9010C94A9010C94A90198
:100040000C94A9010C94D8120C94A9010C94A90148
:100050000C94A9010C94A9010C94A9010C9473119E
:100060000C94A9010C94A9010C94A9010C94A90168
:100070000C94A9010C94A9010C94A9010C94A90158
:100080000C94A9010C94A9010C94A9010C94A90148
:100090000C94BD110C94A9010C94A9010C94A90114
:1000A0000C94A9010C94A9010C94A9010000000072
:1000B0002300260029002C002F0000000002000968
:1000C0000F0000030401000C00000000000000000D
:1000D000000000000000000000080B000202020007
:1000E00000090400000102020000052400100105BF
:1000F00024010101042402060524060001070581EC
:100100000310004009040100020A00000007050274
:1001100002400000070583024000000403090412A6
:10012000010002EF02014041233680000101020379
:100130000141726475696E6F204C4C4300417264DA
:1001400075696E6F204C656F6E6172646F00656ECD
:10015000636F64657273636F756E7400636F6E7343
:10016000006675656C0074656D7000626F6F737406
:100170000073706565646F0074616368006D63751A
:1001800074797065006C6973740000D57FAAFE2BCA
:10019000815429FC5683D702A87D52872DF8AC796B
:1001A000D3067BAE04D18550FA2FA471DB0E5A8F93
:1001B00025F08D58F22773A60CD9F623895C08DD4B
:1001C00077A2DF0AA07521F45E8B9D48E23763B603
:1001D0001CC9B461CB1E4A9F35E0CF1AB06531E42B
:1001E0004E9BE633994C18CD67B239EC4693C71253
:1001F000B86D10C56FBAEE3B91446BBE14C195400B
:10020000EA3F42973DE8BC69C316EF3A904511C4F6
:100210006EBBC613B96C38ED4792BD68C2174396E2
:100220003CE99441EB3E6ABF15C04B9E34E1B5609A
:10023000CA1F62B71DC89C49E33619CC66B3E732C2
:10024000984D30E54F9ACE1BB16472A70DD88C59EA
:10025000F3265B8E24F1A570DA0F20F55F8ADE0BA2
:10026000A17409DC76A3F722885DD603A97C28FD5A
:100270005782FF2A805501D47EAB8451FB2E7AAF82
:1002800005D0AD78D20753862CF900000000250078
:1002900028002B002E003100000000002400270061
:1002A0002A002D00300004040404040304050202A3
:1002B00002020403020202020606060606060404FF
:1002C0000202020404040802011040804010204091
:1002D000804080080204018040201002011080103C
:1002E0002040402005010905A101A1008503050961
:1002F0001901292015002501750195208102C0C032
:100300002A1311241FBECFEFDAE0DEBFCDBF23E0FA
:10031000A2EDB1E001C01D92A63AB207E1F711E0EB
:10032000A0E0B1E0E6E7FBE302C005900D92A23D3C
:10033000B107D9F711E0C1E8D1E004C02197FE016F
:100340000E94981BC038D107C9F70E9400140C9472
:10035000B91D0C940000CF93DF93FC018181909133
:100360002B03482F490F5527551F483051059CF541
:10037000A281B381109709F527E233E0338322830A
:1003800020812093290380932A0380912C03820FDC
:10039000808320912D03A22FB0912E038A2F821BE0
:1003A0008917E8F481813D91C82FD0E0C85EDE4F07
:1003B00038838F5F8183F2CFD90118962D913C91BC
:1003C000199721153105C1F727E233E019963C93BF
:1003D0002E931897D5CF80E0DF91CF91089581E0DB
:1003E000FBCFCF93DF9390E0FC01EB53FD4F2491C3
:1003F0008A559D4FFC0184918823C1F090E0880FBD
:10040000991FFC01E856FD4FC591D491FC01E657B8
:10041000FD4FA591B4919FB7F8948881E22FE095A4
:100420008E2388838C91E823EC939FBFDF91CF913B
:10043000089590919B039032A1F020919A03290F87
:100440003327331F2032310510F020523109332772
:10045000F901E05AFC4F828F9F5F90939B0381E0EC
:10046000089580E0089520919B032223C1F0E0913C
:100470009A03F0E0E05AFC4F228DFC01208380912A
:100480009A038F5F80939A0390919B03915090936E
:100490009B03803211F410929A0381E0089580E06A
:1004A0000895FC018091BD02882311F13FB7F894B3
:1004B00082E08093E9002091F200822F90E01816EC
:1004C000190614F481E090E0882339F0289844E676
:1004D0004093BC024091F1004083222339F02091E7
:1004E000F200211103C02BE62093E8003FBF0895DE
:1004F0008FEF9FEF089583E08093E9008091F200F1
:10050000882319F08AE38093E80008950C947B0215
:100510000F9370E0FB01EE0FFF1FE60FF71FE7568A
:10052000FD4F4083218302830F91089580E991E07C
:1005300008954091630250916402209161023091CC
:10054000620242175307B4F49091E8009570E1F30A
:100550009091E80092FD19C08093F10080916302B0
:100560009091640201968F739927892B19F48EEF6D
:100570008093E800809163029091640201969093C9
:1005800064028093630281E0089580E00895EF9211
:10059000FF920F931F93CF93DF93F82E192FE62E20
:1005A000042F81E0860F880F0E94990283E00E9449
:1005B0009902CF2DD12FEC0EFD2EF11CCE15DF05AB
:1005C000B9F007FF13C0FE0184910E949902182F11
:1005D00080E00E949902812321968111EFCFDF9163
:1005E000CF911F910F91FF90EF9008958881EDCFEB
:1005F00081E0F5CFDF92EF92FF920F931F93CF939D
:10060000DF93D82E8A01EB017B01E40EF51ECE1597
:10061000DF0559F0D7FE12C0FE0184910E949902B5
:1006200021968111F4CF0FEF1FEFC801DF91CF9119
:100630001F910F91FF90EF90DF9008958881EECF8A
:100640002FB7F89487708093E9009091E800892F84
:10065000807295FF04C09091F20080E4891B2FBF47
:100660000895615030F02091F100FC012083019643
:10067000F8CF289884E68093BC02089580915902AF
:1006800081110DC082E08093550284E08093560270
:10069000109258021092570281E08093590285E52A
:1006A00092E008950F931F93CF93DF931F92CDB7DE
:1006B000DEB782E0898342E450E069ED70E080E8D3
:1006C0000E94FA020E943E03DC0112960D911C91D9
:1006D0000115110589F0D801ED91FC910280F3819B
:1006E000E02DBE016F5F7F4FC801099597FD04C0E3
:1006F000F80100851185ECCF89810F90DF91CF91B2
:100700001F910F910895CF93DF931F92CDB7DEB75E
:100710006983DC01ED91FC910280F381E02D41E0E1
:1007200050E0BE016F5F7F4F09950F90DF91CF9131
:10073000089583E00E94200390E00895CF93DF9313
:100740001F92CDB7DEB7FC018485958597FD08C063
:100750002FEF3FEF358724870F90DF91CF910895DA
:10076000CE0101960E945102019719F4898190E00F
:10077000F3CF8FEF9FEFF0CF0F931F93CF93DF93C4
:100780001F92CDB7DEB78C01FC018485958597FF5C
:100790000BC0CE0101960E945102019771F489812C
:1007A00090E0F80195878487F801848595850F90FE
:1007B000DF91CF911F910F9108958FEF9FEFF1CFB0
:1007C000FC018485958597FD0BC09FB7F89482E066
:1007D0008093E9008091F2009FBF90E00196089518
:1007E0009FB7F89482E08093E9008091F2009FBF68
:1007F00090E0089581508F3008F047C0E82FF0E076
:10080000EC5FFB4F0C94981B21042504130419047E
:100810001D0445044504450428042E04320436040E
:100820003C0445044004809180008F7780938000D1
:100830000895809180008F7DF9CF80918000877F1F
:10084000F5CF84B58F7784BD089584B58F7DFBCFB8
:10085000809190008F778093900008958091900010
:100860008F7DF9CF80919000877FF5CF8091C00078
:100870008F778093C00008958091C0008F7DF9CF5D
:100880008091C200877F8093C2000895CF93DF9349
:10089000282F30E0F901E654FF4F8491F901EB5322
:1008A000FD4FD491F901EA55FD4FC491CC23A1F03D
:1008B00081110E94FA03EC2FF0E0EE0FFF1FE455C8
:1008C000FF4FA591B491EC91ED2381E090E009F404
:1008D00080E0DF91CF91089580E090E0FACF1F9300
:1008E000CF93DF93282F30E0F901E654FF4F849136
:1008F000F901EB53FD4FD491F901EA55FD4FC49135
:10090000CC23A9F0162F81110E94FA03EC2FF0E0FE
:10091000EE0FFF1FE657FD4FA591B4918FB7F894E6
:10092000EC91111108C0D095DE23DC938FBFDF91CD
:10093000CF911F910895DE2BF8CF3FB7F8948091A7
:10094000510290915202A0915302B091540226B5E7
:10095000A89B05C02F3F19F00196A11DB11D3FBFF7
:10096000BA2FA92F982F8827BC01CD01620F711DC6
:10097000811D911D42E0660F771F881F991F4A95C0
:10098000D1F708958F929F92AF92BF92CF92DF924C
:10099000EF92FF924B015C010E949D046B017C0170
:1009A0000E949D046C197D098E099F09683E734061
:1009B00081059105A8F321E0821A9108A108B108E8
:1009C00088EEC80E83E0D81EE11CF11C811491044E
:1009D000A104B10429F7FF90EF90DF90CF90BF9072
:1009E000AF909F908F9008957F928F929F92AF9239
:1009F000BF92CF92DF92EF92FF920F931F93CF930C
:100A0000DF93C82E8B017A018091BD02811110C045
:100A10008FEF9FEFDF91CF911F910F91FF90EF909C
:100A2000DF90CF90BF90AF909F908F907F90089570
:100A30008091670280FF05C08091E0008260809312
:100A4000E000CE2DDF2DD12C8AEFB82E8C2D8770B3
:100A5000982E8C2D8072882E8C2D8074782E9AE39F
:100A6000A92E209719F4DD2009F452C08C2D0E9484
:100A7000200381110AC0BA94BB2051F261E070E0FA
:100A800080E090E00E94C204ECCF8C171D0611F0AC
:100A90000CF08C2F9FB7F8949092E9002091E80019
:100AA00025FD02C09FBFDDCF282F30E0C21BD30B36
:100AB000882029F08150A0F01092F100FBCFF801BE
:100AC000C7FC0AC0815050F041914093F100FACF29
:100AD00044914093F10031968150D0F7020F131FDB
:100AE000DD2021F0A092E800D12CDCCF8091E8003D
:100AF00085FD07C0A092E800DD24D394209791F2F1
:100B0000F3CF209779F6772069F2A092E800CACF58
:100B10005D9884E680936602C7017CCFCF92DF9216
:100B2000EF92FF920F931F93CF93DF931F92CDB756
:100B3000DEB7E62F00919E0310919F032091A00342
:100B40003091A10341E050E060E070E06A017B0178
:100B500004C0CC0CDD1CEE1CFF1C8A95D2F7D7011B
:100B6000C601EE2309F45AC0802B912BA22BB32B84
:100B700080939E0390939F03A093A003B093A1033F
:100B80008091380381112AC011E010932B03109338
:100B90002C0381E393E090932E0380932D03109216
:100BA000300310922F038DE591E0909328038093FA
:100BB00027031092330310923203109235031092E0
:100BC0003403109336031093370381EC8093310381
:100BD0000E943E030E94AB011093380383E0898397
:100BE00041E050E0BE016F5F7F4F80912A030E9479
:100BF000F40497FD09C080912A0344E050E06EE9B7
:100C000073E080640E94F4040F90DF91CF911F91F4
:100C10000F91FF90EF90DF90CF9008958095909581
:100C2000A095B09580239123A223B323A1CFCF9386
:100C3000DF93EC0180910B01882331F083E00E9467
:100C4000F4041816190634F081E090E09B838A833F
:100C500080E090E0DF91CF9108952FB7F8946091F4
:100C60004D0270914E0280914F02909150022FBF21
:100C700008954F925F926F927F929F92AF92BF9230
:100C8000CF92DF92EF92FF920F931F93CF93DF9358
:100C900000D01F92CDB7DEB7D0901A0380911D030C
:100CA00090911E03A0911F03B0912003892B8A2BE2
:100CB0008B2BD9F00E949D040091C6021091C702AF
:100CC0002091C8023091C902601B710B820B930BFB
:100CD00000911D0310911E0320911F0330912003EA
:100CE0006017710782079307C8F20E949D04609302
:100CF000C6027093C7028093C8029093C902E09124
:100D00002503F0912603309759F04091210350912B
:100D1000220360912303709124038D2D0995D82E11
:100D2000E090C402F090C5024D2C512C712C612C26
:100D3000E114F10409F459C0D7011C96CC901C971A
:100D400080911B0390911C038436910510F41C962E
:100D50001C92D701ED91FC91A280B38019821A8276
:100D60001B82DD2079F1F701369610E000E0219139
:100D7000222319F19280992001F130E050E040E007
:100D80002F5F3F4F4F4F5F4FC301B2010E94521B75
:100D90009B01AC01892D90E0B0E0A0E0BC01CD0149
:100DA0006F5F7F4F8F4F9F4F0E94521BA1E0B0E0BB
:100DB000AC0FBD1FA00FB11F8C930F5F1F4F0330EF
:100DC0001105A9F609811A812B81F7014585568500
:100DD00062817381C701F5010995D7011C96CC92F8
:100DE0001C971496ED90FC90A3CF8091C202909135
:100DF000C3028C010F5F1F4F1093C3020093C20206
:100E00004997B4F10E942D06C090BE02D090BF0257
:100E1000E090C002F090C1029B01AC012C193D0989
:100E20004E095F0921F421E030E040E050E088EE17
:100E300093E0089FB001099F700D189F700D112459
:100E4000072E000C880B990B0E94761B30931C0315
:100E500020931B031092C3021092C2020E942D061F
:100E60006093BE027093BF028093C0029093C10250
:100E70000F900F900F90DF91CF911F910F91FF90E6
:100E8000EF90DF90CF90BF90AF909F907F906F904A
:100E90005F904F9008950C94390620910202260F1E
:100EA0003327331F21323105ECF420912602FC0157
:100EB00090E080E0243069F082E00895A091020281
:100EC0002191AC014E515E4FA40FB52FB11D2C9353
:100ED0000196861798F380910202680F60930202D0
:100EE00080E0089581E0089508958FEF9FEF0895C1
:100EF0008FEF9FEF08958091DB0190E091958195B0
:100F000091090895CF93DF93CB01EA01642F0E94EA
:100F10004D07CE01DF91CF910895CF93DF931F92BC
:100F2000CDB7DEB7698361E0CE0101960E944D071F
:100F300081E090E00F90DF91CF91089590E080E004
:100F40000895DC01FB0112962C9112978481958102
:100F50002817190641F491818081813A31F49D7FEF
:100F600081E0913009F080E008958132E1F79B3013
:100F700029F482811F968C9381E008959A3099F725
:100F8000828150968C93F8CFDC01FB0188E480834A
:100F900089E4818384E482831D969C911D979F70D0
:100FA0009F5B93831D968D919C9124E096958795E8
:100FB0002A95E1F78F708F5B848385E00895EF9227
:100FC000FF920F931F93CF93DF93FB012081213872
:100FD00071F52381223259F5DC0112964C9124815E
:100FE00035814217130619F5EC010B851C85F12C90
:100FF000E12C0115110589F0F801448155816281C8
:10100000738180E80E94FA028F3F980749F0E80E4A
:10101000F91ED8010D911C91ECCF81E08F87C7019B
:10102000DF91CF911F910F91FF90EF90089590E085
:1010300080E0F6CFCF93DF93CDB7DEB769970FB6D9
:10104000F894DEBF0FBECDBFFC01DB018C918F5F3A
:101050008C939E012D5F3F4F8DE0D9011D928A95A3
:10106000E9F729E0298384E08A8391E09D8383E086
:101070008E832A8721E22B879C879D879F8722E288
:10108000288B27E02B8B25E02C8B8E8B20E430E007
:10109000388F2F8B998F82818B8395858685998B4D
:1010A0008A8B838180688D8B49E150E0BE016F5F40
:1010B0007F4F80E00E94FA0269960FB6F894DEBF77
:1010C0000FBECDBFDF91CF910895CF93C82F68E0B9
:1010D0008AEC92E00E9483036C2F8AEC92E00E94DB
:1010E0008303CF910C947B02CF92DF92EF92FF9219
:1010F000CF93DF93EC010E942D066B017C01E88108
:10110000F981309711F081E009958AEC92E00E9414
:101110009E0397FF0DC00E942D066C197D098E0954
:101120009F09643671058105910548F38FEF9FEFA4
:10113000DF91CF91FF90EF90DF90CF900895CF9205
:10114000DF92EF92FF920F931F93CF93DF938AEC7E
:1011500092E00E94E003181619060CF09BC08CE97F
:1011600093E00E947408019791F78CE993E00E9444
:101170007408019709F08EC08CE993E00E9474080E
:101180008C01C1E097FD2AC08CE993E00E947408AD
:101190007C010197809708F061C080E6C82E83E04B
:1011A000D82E8CE993E00E947408F60181936F01B8
:1011B000C0E097FDC5E0C601805693408E159F059F
:1011C0005CF0C1110BC08CE993E00E9474089C0193
:1011D00097FF46C0C3E002C0CC2319F3D091780337
:1011E00064E08AEC92E00E9483036D2F8AEC92E027
:1011F0000E9483036C2F2BC0809178039091790318
:10120000C4E0E217130651F7803891051CF090E016
:1012100080E001C001960817190719F00F3F11056A
:1012200081F4C0E6D3E0CE01805693408E159F0531
:1012300024F489910E941902F6CF10937903009348
:10124000780363E08AEC92E00E948303602F8AECCB
:1012500092E00E9483030E947B0279CFC2E0BECF5E
:10126000F801E657FE4FE491C7018E27FC01E657CF
:10127000FE4FE491A0E6B3E0CD01805693408E1579
:101280009F050CF0B9CF9D91E927F0E0E657FE4F9E
:10129000E491F2CFDF91CF911F910F91FF90EF90EA
:1012A000DF90CF900895CF92DF92EF92FF92CF938D
:1012B000DF931F92CDB7DEB70E942D066B017C0134
:1012C000E0919C03F0919D03309711F080E0099527
:1012D00080919B03882379F01982CE0101960E94A8
:1012E0003302898190E00F90DF91CF91FF90EF90D2
:1012F000DF90CF9008950E949F080E942D066C19E0
:101300007D098E099F096039714081059105C0F200
:1013100080919B038111D4CF8FEF9FEFE4CF0F9388
:101320001F93CF93DF932091DA012F5F322F377015
:101330003093DA0120FF2BC020E831FD20643470A7
:1013400009F02062205FFC01EC01239600E011E02F
:101350006485662329F070E0C8010E94621B6F5FFC
:101360006187322F369F030E30E0311D1124311179
:1013700010C01682662311F0615061873196EC1718
:10138000FD0731F7DF91CF911F910F91089520E074
:10139000D4CF31503683EECF4F925F927F928F92AF
:1013A0009F92AF92BF92CF92DF92EF92FF920F93F4
:1013B0001F93CF93DF932C01EB010E949D04F20158
:1013C00027853089621B730B6A307105B0F3F8947E
:1013D0008A819B81181619060CF0CDC1E881F9812C
:1013E0006BB1862E689480F83BB13E7F3BB9DA84BE
:1013F0008F812D2D281B822F2F834F85042E000CCB
:10140000550BAA81BB817D85FC84EE847F5FF394BC
:10141000E3949E819884B984AB841181C12C6C2D96
:101420000C2D2C2D2181112788942111280F08F4CF
:101430002FEF8195889470FD120F1795889471FD98
:10144000120F1795889472FD120F1795889473FDEB
:10145000120F1795889474FD120F1795889475FDD7
:10146000120F1795889476FD120F1795889477FDC3
:10147000120F17958894622F7111612F8D0D162F01
:10148000002C8BB800C017FF3BB9208166278894D9
:1014900000C000C0002C3BB92111290F00C0002C56
:1014A0008BB800C016FF3BB908F42FEF91958894D4
:1014B00000C000C0002C3BB9F0FC620F00C0002C43
:1014C0008BB800C015FF3BB967958894F1FC620F9B
:1014D00000C000C0002C3BB96795889400C0002C68
:1014E0008BB800C014FF3BB9F2FC620F679588947B
:1014F00000C000C0002C3BB9F3FC620F00C0002C00
:101500008BB800C013FF3BB967958894F4FC620F59
:1015100000C000C0002C3BB96795889400C0002C27
:101520008BB800C012FF3BB9F5FC620F6795889439
:1015300000C000C0002C3BB9F6FC620F00C0002CBC
:101540008BB800C011FF3BB967958894F7FC620F18
:1015500000C000C0002C3BB96795889400C0002CE7
:101560008BB800C010FF3BB9122FF110162F9B0D46
:1015700000C000C0002C3BB900C000C0002C8BB8DC
:1015800000C017FF3BB922816627889400C000C0C5
:10159000002C3BB92111290D00C0002C8BB800C0D4
:1015A00016FF3BB908F42FEFE40FF51F00C000C091
:1015B000002C3BB9E0FC620F00C0002C8BB800C0CF
:1015C00015FF3BB967958894E1FC620F00C000C02D
:1015D000002C3BB96795889400C0002C8BB800C0E4
:1015E00014FF3BB9E2FC620F6795889400C000C00D
:1015F000002C3BB9E3FC620F00C0002C8BB800C08C
:1016000013FF3BB967958894E4FC620F00C000C0EB
:10161000002C3BB96795889400C0002C8BB800C0A3
:1016200012FF3BB9E5FC620F6795889400C000C0CB
:10163000002C3BB9E6FC620F00C0002C8BB800C048
:1016400011FF3BB967958894E7FC620F00C000C0AA
:10165000002C3BB96795889400C0002C8BB800C063
:1016600010FF3BB9122FE110162F919400C000C05B
:10167000002C3BB99A0C00C000C08BB800C017FF0B
:101680003BB921816627889400C000C0002C3BB97B
:101690002111280F00C0002C8BB800C016FF3BB9E9
:1016A00008F42FEF8195889400C000C0002C3BB94E
:1016B00070FD620F00C0002C8BB800C015FF3BB955
:1016C0006795889471FD620F00C000C0002C3BB983
:1016D0006795889400C0002C8BB800C014FF3BB9FC
:1016E00072FD620F6795889400C000C0002C3BB962
:1016F00073FD620F00C0002C8BB800C013FF3BB914
:101700006795889474FD620F00C000C0002C3BB93F
:101710006795889400C0002C8BB800C012FF3BB9BD
:1017200075FD620F6795889400C000C0002C3BB91E
:1017300076FD620F00C0002C8BB800C011FF3BB9D2
:101740006795889477FD620F00C000C0002C3BB9FC
:101750006795889400C0002C8BB800C010FF3BB97F
:10176000122F7111162F8D0D00C000C0002C3BB937
:10177000119709F086CE4A815B8120EE31E0DA01D3
:101780000E949E1BDC01CB01F4E0B695A7959795CE
:101790008795FA95D1F730E020E0B901EAE94E9F4C
:1017A000040E611D5E9F600D711D1124650F711D7A
:1017B000860F971FA11DB11D893E43E09407A10527
:1017C000B10508F434C0885E9340A109B10942E034
:1017D000B695A795979587954A95D1F747E0849F49
:1017E000080E211D949F200D311D1124290F311D3C
:1017F0006091D90170E0860F971F820F931F40916F
:101800004D0250914E0260914F0270915002292F6B
:101810003327420F531F611D711D40934D0250939A
:101820004E0260934F02709350028093D9017894D6
:101830000E949D04F201708B6787DF91CF911F9109
:101840000F91FF90EF90DF90CF90BF90AF909F905F
:101850008F907F905F904F900895509A08956F9267
:101860007F928F92CF92DF92EF92FF920F931F930E
:10187000CF93DF93CDB7DEB762970FB6F894DEBF94
:101880000FBECDBF6C017A013801822EDC011C969F
:101890002C91CA0157FF04C088279927841B950BF8
:1018A0007A8369839C838B839E838D836D867E86FA
:1018B0008F86213049F5CE0101960E948F0983E081
:1018C000888B1A8A198AF7FE02C08DEF888BD601A1
:1018D000ED91FC910484F585E02DBE016F5F7F4F93
:1018E000C601099562960FB6F894DEBF0FBECDBF54
:1018F000DF91CF911F910F91FF90EF90DF90CF90EC
:101900008F907F906F9008951C861B861A8619868B
:1019100018861F82D4CFEF92FF920F931F93CF931D
:10192000DF93CDB7DEB762970FB6F894DEBF0FBE78
:10193000CDBF7C01DC011C968C917A8369835C832A
:101940004B835E834D830D871E872F878130F9F48B
:10195000CE0101960E948F09188A1A8A198AD70126
:10196000ED91FC910484F585E02DBE016F5F7F4F02
:10197000C701099562960FB6F894DEBF0FBECDBFC2
:10198000DF91CF911F910F91FF90EF9008951C86EA
:101990001B861A86198618861F82DECF0F931F9327
:1019A0000E942D0600914E0310914F032091500389
:1019B00030915103601B710B820B930B009152030A
:1019C00010915303209154033091550306171707C4
:1019D0002807390750F40E942D0660934E03709338
:1019E0004F0380935003909351031F910F910895DB
:1019F00080E00E9465080C947B0290E080E00895EE
:101A0000FC018585968508950F931F93CF93DF93EF
:101A100000D01F92CDB7DEB7AB0119821A821B82AC
:101A2000DC01ED91FC910190F081E02D00E010E0EF
:101A300020E0BE016F5F7F4F09950F900F900F90D0
:101A4000DF91CF911F910F910895FC01019000202B
:101A5000E9F73197AF01481B590BBC018AEC92E0C2
:101A60000C9417060F931F93CF93DF938C01EC0117
:101A700009900020E9F72197C81BD90B66E08AEC92
:101A800092E00E9483036C2F8AEC92E00E94830311
:101A9000C8010E94250D60E28AEC92E00E94830357
:101AA000DF91CF911F910F910C947B020E949B1D9F
:101AB000FC0124813581FB014481558124173507C0
:101AC000E1F4FC0180819181FB01608171810097CB
:101AD000D1F061157105A1F4232BC1F0FC018081C7
:101AE00090E008C0232B91F0FB01808190E091955C
:101AF0008195910921E0892B09F020E0822F08953A
:101B00000E94A91DF7CF6115710561F721E0F6CF9D
:101B10000F931F93CF93DF93EC01888199810097F6
:101B200059F02A813B812617370730F081E0DF9199
:101B3000CF911F910F9108958B016F5F7F4F0E948E
:101B4000DE1C009759F0998388831B830A832C81BC
:101B50003D81232B59F7FC011082E8CF80E0E7CFCD
:101B6000EF92FF920F931F93CF93DF93611571054F
:101B700041F480E0DF91CF911F910F91FF90EF90A2
:101B8000089541155105B1F07B01EC010C811D81D7
:101B9000040F151FB8010E94880D882351F3288176
:101BA00039818C819D81B701820F931F0E94B21DE4
:101BB0001D830C8381E0DECFCF93DF93EC0188811E
:101BC0009981009711F00E94551C198218821D827C
:101BD0001C821B821A82DF91CF910895EF92FF92AF
:101BE0000F931F93CF93DF938C017B01EB0109903F
:101BF0000020E9F72197C61BD70BBE010E94880D74
:101C0000811109C0C801DF91CF911F910F91FF9001
:101C1000EF900C94DC0DF801D583C483B70180816B
:101C20009181DF91CF911F910F91FF90EF900C94D4
:101C3000B21DFC0180819181009711F00C94551C1C
:101C40000895EF92FF920F931F93CF93DF93EC01D0
:101C50008B01198218821B821A821D821C82CB0181
:101C60000E94F81A7C01BC01CE010E94880D8111EE
:101C700009C0CE01DF91CF911F910F91FF90EF909E
:101C80000C94DC0DFD82EC82B80188819981DF9192
:101C9000CF911F910F91FF90EF900C94F11A1F9329
:101CA000CF93DF9385ED8093BC008091DE0190910E
:101CB000DF01A091E001B091E1010796A11DB11DE6
:101CC00023E0B695A795979587952A95D1F720910A
:101CD000BC0024FD03C01092260252C04091DE01D8
:101CE0005091DF016091E0017091E101452B462B9D
:101CF000472B69F30097A105B10541F02AE22A9527
:101D0000F1F700C00197A109B109E1CF8091DD0190
:101D1000C1E0C093DC01882399F1D091B800109103
:101D2000BA008091BC008A7B8093BC0060E082E0B6
:101D30000E946F0460E083E00E946F04109226020C
:101D4000C09328021092270261E082E00E946F0493
:101D500061E083E00E946F048091B9008E7F8093E0
:101D6000B9008091B9008D7F8093B90088E4809399
:101D7000B80085E48093BC001093BA00D093B800FB
:101D8000DF91CF911F9108951F920F920FB60F927E
:101D900011242F933F934F935F936F937F938F9370
:101DA0009F93AF93BF93CF93EF93FF93C091E100C5
:101DB0008091E100837F8093E100C3FF0FC0109208
:101DC000E90081E08093EB001092EC0082E38093C5
:101DD000ED001092BD0288E08093F000C2FF1AC0AF
:101DE0000E947B0280916602882341F08091660206
:101DF000815080936602811101C05D9A8091BC027E
:101E0000882341F08091BC0281508093BC028111F3
:101E100001C0289AC4FF23C08091E2008E7E8160B9
:101E20008093E2008091E1008F7E8093E1008091B9
:101E300067028E7E806180936702FF91EF91CF9160
:101E4000BF91AF919F918F917F916F915F914F91D2
:101E50003F912F910F900FBE0F901F901895C0FFCC
:101E6000ECCF8091E2008E7E80618093E2008091D1
:101E7000E1008E7E8093E100809167028E7E81601A
:101E8000DACF1F920F920FB60F921124CF92DF92EA
:101E9000EF92FF920F931F932F933F934F935F9374
:101EA0006F937F938F939F93AF93BF93EF93FF9322
:101EB000CF93DF93CDB7DEB76C97DEBFCDBF109267
:101EC000E9008091E80083FF25C068E0CE014596D7
:101ED0000E94310382EF8093E8008D8987FF39C02B
:101EE0009091E80090FFFCCF982F907609F034C1D4
:101EF0009E894F89588D2F89F88C911131C0803877
:101F000061F5809168028093F1001092F1008EEFEC
:101F10008093E8006C960FB6F894DEBF0FBECDBF7D
:101F2000DF91CF91FF91EF91BF91AF919F918F91F1
:101F30007F916F915F914F913F912F911F910F91E1
:101F4000FF90EF90DF90CF900F900FBE0F901F90FB
:101F500018959EEF9093E800C7CF1092F100D5CF6F
:101F6000913059F48111D3CF4130510581F68091E0
:101F700068028D7F80936802CACF933049F4811143
:101F8000C6CF4130510519F6809168028260F2CFC8
:101F9000953041F48091E80080FFFCCF20682093C9
:101FA000E300B5CF963009F0A9C00B8D1C8D22E05F
:101FB0001092E9001092640210926302F2122EC095
:101FC00010926202109261020E9452031F8299E0F5
:101FD0009983FA8291E09E8390EA98879AEF998795
:101FE0002091630230916402275F3F4F3C832B8333
:101FF0008D831092E9001092640210926302109394
:1020000062020093610249E050E0BE016F5F7F4FC2
:1020100080E00E94FA020E94520379CF109362027C
:10202000009361020E943E03DC0112960D911C9107
:102030000115110509F451C1D801ED91FC910480FD
:10204000F581E02DBE016B5E7F4FC80109950097B9
:1020500009F03EC1F80100851185EACFF3E0FF12D7
:102060000EC08F89882309F440C0823061F440E8B3
:1020700060E18DE391E00E94C702811148CF81E2C7
:102080008093EB0047CF813029F440E86BE081E397
:1020900091E0F1CF833099F70E943E03DC01129664
:1020A000ED90FC908E010F5F1F4F6801E114F10469
:1020B00079F0D701ED91FC910680F781E02DB80110
:1020C000C7010995080F111DF701E084F184EECFD7
:1020D000D8011C92F60101900020E9F73197BF0169
:1020E0006C197D0940E0C601C6CF6BE171E0FB01D0
:1020F000449150E080E80E94FA0209CF973009F439
:10210000BECF983021F481E08093F10000CF993068
:1021100009F0FDCE837009F0B2CFE9E1F1E081E092
:1021200031E096E32191222371F08093E90030930E
:10213000EB00DF0111972C912093EC009093ED00C0
:102140008F5F873079F78EE78093EA001092EA007C
:102150008F898093BD02DBCE8B8D9C8D1092E90020
:102160001092640210926302909362028093610263
:10217000898D811192C08E899D89913A49F481326D
:1021800009F07DCF47E050E064E071E080E0B3CF3C
:10219000913209F074CF833269F48F89988DB0E061
:1021A000A0E08093000190930101A0930201B093FD
:1021B0000301ADCE803269F48091E80082FFFCCF4C
:1021C00067E084E091E00E9431038BEF8093E800A8
:1021D0009ECE823209F09BCE8F8980930B01EEEF69
:1021E000FFE7859194918B3F9C4D51F1E0E0F8E041
:1021F0008091040190910501A0910601B091070121
:10220000803B9440A105B105F1F480910B0180FD64
:102210001AC0EE3F8AE0F80789F587E797E79183D0
:102220008083809160008093650288E19BE00FB617
:10223000F894A895809360000FBE9093600067CEDD
:10224000EEEFFAE0D5CF808191818737974709F08B
:102250005ECEA89580916000886180936000809137
:10226000650280936000EE3F2AE0F20789F08091DA
:10227000FE0A9091FF0A9183808349CE80819181EB
:102280008737980751F29093FF0A8093FE0AC5CFD3
:102290001092FF0A1092FE0A3ACE0E943E03DC0121
:1022A00012960D911C910115110509F4E8CED80183
:1022B000ED91FC910190F081E02DBE016B5E7F4FAE
:1022C000C8010995811123CEF80100851185EBCF56
:1022D000181619060CF41BCED2CEF1E0FF12BECEBA
:1022E0006FE171E004CF1F920F920FB60F9211248D
:1022F0002F933F938F939F93AF93BF9380914D0202
:1023000090914E02A0914F02B091500230914C0238
:1023100023E0230F2D3758F50196A11DB11D209301
:102320004C0280934D0290934E02A0934F02B093C3
:1023300050028091510290915202A0915302B091AB
:1023400054020196A11DB11D809351029093520237
:10235000A0935302B0935402BF91AF919F918F917C
:102360003F912F910F900FBE0F901F90189526E868
:10237000230F0296A11DB11DD2CF1F920F920FB64F
:102380000F9211242F933F934F935F936F937F93FB
:102390008F939F93AF93BF93EF93FF938091B90077
:1023A000887F803609F44AC0F0F5883209F4A5C068
:1023B00018F5803109F499C0B8F4882309F4F5C000
:1023C000883009F492C0FF91EF91BF91AF919F9136
:1023D0008F917F916F915F914F913F912F910F90CE
:1023E0000FBE0F901F901895883109F486C0803277
:1023F00051F78093250214C0803409F49BC040F447
:102400008033B9F38833F9F68093250285ECAEC0AA
:10241000803509F483C0883509F494C0883499F66E
:102420000E944F0ED0CF883909F48AC038F588371A
:1024300029F050F4883611F0803729F683E0809334
:1024400026021092240255C0883809F479C08039D8
:1024500019F0803809F0B7CF80912402803208F05B
:102460006FC0E091240281E08E0F8093240280915E
:10247000BB00F0E0EC5FFD4F80833BC0803B39F058
:10248000D0F4803A09F477C0883A09F09CCF84E010
:10249000809326021092030210920202F0E0E0E024
:1024A00009958091020281110FC081E080930202A0
:1024B0001092E20109C0803C09F4A8CF883C09F4DD
:1024C000A5CF883B09F07FCFE091030281E08E0F1A
:1024D00080930302F0E0EE51FE4F80818093BB00B9
:1024E000909103028091020229C080914B02809357
:1024F000BB0085EC8093BC0066CF90914A0280912E
:102500004902981758F5E0914A0281E08E0F8093B6
:102510004A02F0E0E75DFD4F8081E9CFE0914A0299
:1025200081E08E0F80934A028091BB00F0E0E75D6E
:10253000FD4F808390914A02809149029817C8F21A
:1025400085E8D8CFE0914A0281E08E0F80934A025D
:102550008091BB00F0E0E75DFD4F80838091280211
:1025600081115ECF81E08093270284EA8093BC00D2
:102570001092260228CF85EC8093BC001092260290
:1025800080912402803230F4E0912402F0E0EC5F8C
:10259000FD4F10826091240270E084E092E0F0E050
:1025A000E0E00995109224020ECF1092250238CF58
:1025B0001F920F920FB60F9211242F938F939F9318
:1025C00021E02093BB028091D7019091D801019620
:1025D0009093D8018093D7018091D7019091D80131
:1025E0000A9734F01092D8011092D7012093BA02C2
:1025F0009F918F912F910F900FBE0F901F90189564
:102600000F931F93CF93DF938C01EC01099000206F
:10261000E9F72197C81BD90B66E08AEC92E00E948B
:1026200083036C2F6F5F8AEC92E00E948303C801E2
:102630000E94250D6AE08AEC92E00E94830360E22A
:102640008AEC92E00E948303DF91CF911F910F915A
:102650000C947B02CF931092CD021092CC0288EEA4
:1026600093E0A0E0B0E08093CE029093CF02A093DD
:10267000D002B093D1028BE491E09093CB0280938F
:10268000CA028FEF9FEF9093D7028093D602809378
:102690001A0310921C0310921B031092260310922F
:1026A00025038FEF9FEFDC0180932103909322039A
:1026B000A0932303B093240380914603811113C098
:1026C000109241031092400384EE92E090934303F2
:1026D000809342038CE190E0909345038093440300
:1026E00081E0809346038091380381112AC0C1E0C4
:1026F000C0932B03C0932C0381E393E090932E03AC
:1027000080932D031092300310922F038DE591E0FA
:10271000909328038093270310923303109232037F
:102720001092350310923403C0933603C0933703DD
:1027300081EC809331030E943E030E94AB01C09361
:102740003803E0913203F0913303309709F04FC022
:1027500080E493E0909333038093320380913403B9
:10276000909135032091440330914503820F931FCC
:10277000909335038093340310929E0310929F032D
:102780001092A0031092A1038FEF90E09093790331
:102790008093780310929A0310929B0310929D03EA
:1027A00010929C0389E691E090935703809356031F
:1027B00010925C0310925D0310925E0310925F030F
:1027C00010924E0310924F03109250031092510337
:1027D0008AE090E0A0E0B0E080935203909353032E
:1027E000A0935403B0935503CF910895FC018081C9
:1027F00091810097D9F780E493E091838083AECFF5
:10280000CF93DF93CDB7DEB7A7970FB6F894DEBFAF
:102810000FBECDBF789484B5826084BD84B58160DD
:1028200084BD85B5826085BD85B5816085BD80919B
:102830006E00816080936E00109281008091810013
:10284000826080938100809181008160809381000B
:1028500080918000816080938000809191008260EF
:10286000809391008091910081608093910080918C
:1028700090008160809390008091C100846080937B
:10288000C1008091C10082608093C1008091C1002D
:1028900081608093C1008091C30081608093C300F8
:1028A0008091C00082608093C0008091C2008160EE
:1028B0008093C20080917A00846080937A00809136
:1028C0007A00826080937A0080917A0081608093A0
:1028D0007A0080917A00806880937A001092BD021D
:1028E00010926802109267028091D70081608093F5
:1028F000D70080EA8093D80089B5806189BD89B509
:10290000826089BD09B400FEFDCF61E070E080E027
:1029100090E00E94C2048091D8008F7C80618093F7
:10292000D8008091E000807F8093E0008091E100FA
:102930008E7E8093E1008DE08093E200559A209A8C
:10294000F8941092800010928100109285001092ED
:10295000840020E137E2309389002093880080933F
:10296000810082E080936F0078942CE930E030930E
:1029700089002093880080936F002098289A2498DB
:102980002C9A25982D9A26982E9A27982F9A519806
:10299000599A54985C9A55985D9A56985E9A5798A9
:1029A0005F9A3E98469A3F98479A6E98769A819891
:1029B000899A87988F9A83E10E94F10184E10E94AD
:1029C000F10187E10E94F10185E10E94F101529835
:1029D00053988FEF9FEF9093D7028093D6028BE0AE
:1029E00090E0909359038093580381E090E0909396
:1029F0005B0380935A0380917C02811145C0109241
:102A00006E0210926D028FEF8093710280937202BA
:102A10008093730280937402809375028093760290
:102A200081E08093770210927902109278021092DE
:102A3000700210926F028091C4029091C502892B9E
:102A400031F48BE692E09093C5028093C402E0914A
:102A50006902F0916A02309721F08BE692E095834B
:102A600084838BE692E090936A02809369021092CD
:102A70007B0210927A0289E391E090936C0280933A
:102A80006B0281E080937C02509A89E992E09093F6
:102A90006E0280936D028BE090E0909379028093B8
:102AA000780280911D0390911E03A0911F03B091A5
:102AB0002003843C29E09207A105B10520F484ECB1
:102AC00099E0A0E0B0E080931D0390931E03A093D3
:102AD0001F03B0932003E9E9F2E08FEF80831182B6
:102AE0001282339692E0EA3BF907C1F70E94390659
:102AF0008EEC9CE090939D0380939C035AE0852E7E
:102B0000912CA12CB12C60E0662E60E0762E0FEFA8
:102B10001FEF8091BB02882309F414C11092BB02FD
:102B200083B18E60D82E80938802282F30E050E049
:102B300040E019A27E01E1E2EE0EF11CCA01B901EA
:102B4000A50194010E94761B605DF70162937F01ED
:102B5000211531054105510589F7309719F0CF014D
:102B60000E94250D8DE691E00E94250D809187023F
:102B7000D8122CC1809186028F5F8093860290913B
:102B80008502D91671F1853061F510928602D092D6
:102B90008502D094D922D0928402DD2009F402C1AA
:102BA000D7FE04C061E081E00E948E05D6FE04C01D
:102BB00061E080E00E948E05D5FE04C061E084E003
:102BC0000E948E05D4FE04C061E083E00E948E0561
:102BD000D0FE07C081E08093940261E082E00E9411
:102BE0008E0586B18F6390918C028913FCC0909101
:102BF0008B029F5F90938B02F0908A028F15E1F019
:102C00009530D1F410928B0280938A028095F8223D
:102C1000F0928902FF2009F4DEC0F7FE04C061E0F3
:102C20008AE00E948E05F6FE07C081E08093940240
:102C300061E08BE00E948E058CB18F6B90918F02CA
:102C40008913D6C090918E029F5F90938E0220913F
:102C50008D02821771F0953061F410928E0280938C
:102C60008D028095822361E009F460E08CE00E948F
:102C70008E058FB18D67909193028913C7C0909193
:102C800092029F5F90939202F09091028F15B1F0A3
:102C90009530A1F410929202809391028095F822CF
:102CA000F0929002FF2009F4A8C0F7FE04C061E092
:102CB0008DE00E948E0561E0F1FCA4C089B18D60B9
:102CC000909198028913BEC0909197029F5F909354
:102CD0009702F09096028F15A9F1953099F5109210
:102CE0009702809396028095F822F0929502FF2039
:102CF00009F491C0F7FE04C061E085E00E948E05F2
:102D0000F5FE07C081E08093940261E087E00E94B5
:102D10008E05F4FE04C061E089E00E948E05F1FE9C
:102D200007C081E08093940261E088E00E948E05F4
:102D3000F6FE08C080919402811104C061E086E033
:102D40000E948E058091BA0281111092BA02E09120
:102D50009C03F0919D03309711F080E009958091DC
:102D60009B03811102C00E949F0880919B038823CE
:102D700009F4D2C00E945309039709F0CDC00E9404
:102D80002D060E945309813309F061C00E94530946
:102D90006AE070E080E090E00E94C2048AE60E944F
:102DA000650887C160E083E00E948E0560E084E0F2
:102DB0000E948E0560E080E00E948E0560E081E068
:102DC0000E948E051092940260E008CF1092860255
:102DD000D092870206CF60E08AE00E948E051092B2
:102DE000940260E026CF10928B0280938C0224CF55
:102DF00010928E0280938F023CCF60E08DE00E94A3
:102E00008E0560E08EE00E948E0558CF10929202EF
:102E10008093930253CF60E085E00E948E0560E0CE
:102E200086E00E948E051092940260E087E00E9486
:102E30008E0560E089E00E948E051092940260E0A9
:102E400088E07ECF10929702809398027BCF8833E0
:102E500009F012C10E9453097C0168EC70E080E027
:102E600090E00E94C204F1E0EF16F104C9F410935F
:102E7000D7020093D602F6E0EF16F104E9F41093BE
:102E8000D7020093D602FBE0EF16F104E9F41093A9
:102E9000D7020093D602F0E1EF16F104C9F11CC08D
:102EA00022E0E216F10419F383E0E816F104C9F414
:102EB0001093D7020093D60227E0E216F104D1F472
:102EC0001093D7020093D6022CE0E216F104D9F455
:102ED0001093D7020093D60221E1E216F104C1F06B
:102EE0001BC094E0E916F10409F0A0C01093D702CA
:102EF0000093D60288E0E816F10409F0AFC0109301
:102F0000D7020093D6028DE0E816F10409F0AEC0B6
:102F10001093D7020093D60280E00E9446047C0101
:102F200090930F0180930E0180910C0190910D01FF
:102F30008130910509F004C3E114F104A1F481E0AA
:102F40000E944604019709F009C361E080E10E94F4
:102F50008E0562E370E080E090E00E94C20460E0D1
:102F600080E10E948E05F0920D01E0920C0183E158
:102F70000E9446047C01909313018093120180917A
:102F80001001909111018130910509F0F4C2E11412
:102F9000F104A1F484E10E944604019709F0F9C20A
:102FA00061E084E10E948E0562E370E080E090E0E1
:102FB0000E94C20460E084E10E948E05F09211013B
:102FC000E092100187E10E9446047C019093170172
:102FD0008093160180911401909115018130910523
:102FE00009F0E4C2E114F104A1F485E10E94460471
:102FF000019709F0E9C261E082E10E948E0562E377
:1030000070E080E090E00E94C20460E082E10E94F3
:103010008E05F0921501E09214010E942D066114B4
:10302000710409F476CD0E94000073CDE5E0EE1640
:10303000F10409F020CF1093D7020093D602EAE002
:10304000EE16F10409F01FCF1093D7020093D602B9
:10305000EFE0EE16F10409F45BCF1DCF99E0E9161D
:10306000F10469F71093D7020093D6029EE0E916A7
:10307000F10409F44DCFECCF8A3419F40E94F80C16
:103080004BCF823319F40E94F80C46CF823419F4E6
:103090000E94F80C41CF813411F483E080CE8E344D
:1030A00059F480E791E00E94320D8EE691E00E9493
:1030B000320D0E947B0230CF893419F48BE791E006
:1030C000F2CF8033E9F46AE070E080E090E00E94A3
:1030D000C20480EA91E00E94320D82EA91E00E94EF
:1030E000320D84EA91E00E94320D86EA91E00E945E
:1030F000320D88EA91E00E94320D8AEA91E0D3CF46
:10310000833309F409CF863509F406CF833509F4F2
:1031100003CF843311F48BE042CE863309F0B3C081
:103120000E945309181619060CF09EC081309105B3
:1031300081F5D12CED2CF12C8091580390915903FD
:10314000E816F9066CF70E945309582E0E9453099D
:10315000C82E0E94530920915A0330915B032130FD
:10316000310589F42091580321502D1930E0F901DF
:10317000EE0FFF1FE20FF31FE756FD4F5082C18293
:103180008283D394D7CFF701EE0FFF1FEE0DFF1D03
:10319000F3CF82309105A1F50E9453097C010E9472
:1031A00053095E2CE80EF91EC52CD12CCE14DF0479
:1031B0000CF0B6CF0E945309382E0E945309482EB6
:1031C0000E94530920915A0330915B03213031054D
:1031D00089F4209158032150251930E0F901EE0FB0
:1031E000FF1FE20FF31FE756FD4F308241828283BB
:1031F0005394DACFF601EE0FFF1FEC0DFD1DF3CF58
:10320000039709F08DCF0E9453096C010E94530966
:103210007C010E945309582E0E945309482E0E9497
:1032200053099C2D40915A0350915B03A091580380
:10323000A150EC0CFD1C692F70E06E157F050CF0A1
:103240006FCF4130510519F46A2F691B70E09B0163
:10325000220F331F260F371FF901E756FD4F50820B
:10326000418282839F5FE7CF8091580390915903F9
:103270001816190614F40E9439060E94390685E1D1
:103280000E94650849CE8235D1F38D3409F444CECD
:10329000873419F40E9453093FCE95EB980F923072
:1032A00008F43ACE803509F061C01BA21AA21DA213
:1032B0001CA21FA21EA26FE671E0CE0182960E94A0
:1032C000EE0D0E94530997FD0FC08A30910561F001
:1032D00089831A8241E050E0BE016F5F7F4FCE01CB
:1032E00082960E94B00DEDCF1A8219821C821B8239
:1032F0001E821D826CEA71E0CE0101960E94EE0DE5
:103300004EA15FA16AA17BA1CE0101960E94B00DE2
:10331000811104C0CE0101960E94DC0D67E08AECA9
:1033200092E00E9483036D816F5F8AEC92E00E94BD
:1033300083034D815E8169817A818AEC92E00E94EB
:1033400017066AE08AEC92E00E94830360E28AEC4E
:1033500092E00E9483030E947B02CE0101960E94AC
:10336000190ECE0182960E94190E89CF883509F078
:10337000D3CD1BA21AA21DA21CA21FA21EA26FE6E1
:1033800071E0CE0182960E94EE0D0E94530997FDD6
:1033900012C08032910579F08A30910561F08983FD
:1033A0001A8241E050E0BE016F5F7F4FCE018296EE
:1033B0000E94B00DEACF65E871E0CE0101960E944F
:1033C000210EBE016F5F7F4FCE0182960E94580D85
:1033D000F82ECE0101960E94190EFF2091F080EC8C
:1033E00091E00E94001388EC91E00E9400138AE0B3
:1033F0000E9465080E947B02CE0182960E94190EEF
:103400008BCD6DE771E0CE0101960E94210EBE01C9
:103410006F5F7F4FCE0182960E94580DF82ECE012D
:1034200001960E94190EFF2041F08EE10E9465086E
:1034300085E90E94650887E8DBCF68E771E0CE0187
:1034400001960E94210EBE016F5F7F4FCE018296D2
:103450000E94580DF82ECE0101960E94190EF1100F
:10346000CBCF61E771E0CE0101960E94210EBE0133
:103470006F5F7F4FCE0182960E94580DF82ECE01CD
:1034800001960E94190EF110B7CF6BE671E0CE01E4
:1034900001960E94210EBE016F5F7F4FCE01829682
:1034A0000E94580DF82ECE0101960E94190EF110BF
:1034B000A3CF66E671E0CE0101960E94210EBE0107
:1034C0006F5F7F4FCE0182960E94580DF82ECE017D
:1034D00001960E94190EF1108FCF61E671E0CE01C6
:1034E00001960E94210EBE016F5F7F4FCE01829632
:1034F0000E94580DF82ECE0101960E94190EF1106F
:103500007BCF6CE571E0CE0101960E94210EBE01D9
:103510006F5F7F4FCE0182960E94580DF82ECE012C
:1035200001960E94190EF11067CF6EE471E0CE0192
:1035300001960E94210ECE0101960E94190E5CCFC9
:10354000892B09F010CD81E0E816F10409F00BCDCC
:1035500081E00E944604892B09F4F7CC61E08FE0FA
:103560000E948E0562E370E080E090E00E94C20459
:1035700060E08FE0F6CC892B09F020CD91E0E916D0
:10358000F10409F01BCD84E10E944604892B09F463
:1035900007CD61E083E10E948E0562E370E080E088
:1035A00090E00E94C20460E083E106CD892B09F01F
:1035B00030CDE1E0EE16F10409F02BCD85E10E945B
:1035C0004604892B09F417CD61E081E10E948E0544
:1035D00062E370E080E090E00E94C20460E081E17C
:1035E00016CDFB01DC0105900D920020E1F7089556
:1035F000FC0105900020E9F7809590958E0F9F1FA4
:1036000008950E94431BA59F900DB49F900DA49F09
:10361000800D911D112408952F923F924F925F9239
:103620006F927F928F929F92AF92BF92CF92DF92D2
:10363000EF92FF920F931F93CF93DF93CDB7DEB737
:10364000CA1BDB0B0FB6F894DEBF0FBECDBF0994CB
:103650002A88398848885F846E847D848C849B8422
:10366000AA84B984C884DF80EE80FD800C811B8130
:10367000AA81B981CE0FD11D0FB6F894DEBF0FBE5F
:10368000CDBFED010895A29FB001B39FC001A39FDC
:10369000700D811D1124911DB29F700D811D11248B
:1036A000911D0895DB018F939F930E94011BBF9191
:1036B000AF91A29F800D911DA39F900DB29F900D81
:1036C0001124089597FB072E16F4009407D077FD78
:1036D00009D00E94A51B07FC05D03EF4909581956A
:1036E0009F4F0895709561957F4F0895A1E21A2E1E
:1036F000AA1BBB1BFD010DC0AA1FBB1FEE1FFF1F96
:10370000A217B307E407F50720F0A21BB30BE40BE5
:10371000F50B661F771F881F991F1A9469F760952C
:103720007095809590959B01AC01BD01CF010895E6
:10373000EE0FFF1F0590F491E02D09940E94431BAA
:10374000B7FF0895821B930B0895AA1BBB1B51E181
:1037500007C0AA1FBB1FA617B70710F0A61BB70B01
:10376000881F991F5A95A9F780959095BC01CD01A6
:1037700008950F931F93CF93DF938230910510F438
:1037800082E090E0E091A403F091A50330E020E016
:10379000B0E0A0E0309799F42115310509F44AC052
:1037A000281B390B24303105D8F58A819B8161159E
:1037B000710589F1FB0193838283FE0111C0408171
:1037C00051810281138148175907E0F048175907C2
:1037D00099F4109761F012960C93129713961C931C
:1037E0003296CF01DF91CF911F910F9108950093F1
:1037F000A4031093A503F4CF2115310551F042170E
:10380000530738F0A901DB019A01BD01DF01F8017E
:10381000C1CFEF01F9CF9093A5038093A403CDCF3F
:10382000FE01E20FF31F81939193225031093983F6
:103830002883D7CF2091A2033091A303232B41F4F7
:1038400020912101309122013093A3032093A20300
:1038500020911F01309120012115310541F42DB730
:103860003EB74091230150912401241B350BE09178
:10387000A203F091A303E217F307A0F42E1B3F0B62
:103880002817390778F0AC014E5F5F4F24173507D2
:1038900048F04E0F5F1F5093A3034093A203819300
:1038A00091939FCFF0E0E0E09CCFCF93DF93009720
:1038B000E9F0FC01329713821282A091A403B09127
:1038C000A503ED0130E020E01097A1F420813181C3
:1038D000820F931F2091A2033091A3032817390769
:1038E00009F061C0F093A303E093A203DF91CF91AD
:1038F0000895EA01CE17DF07E8F54A815B819E0152
:1039000041155105B1F7E901FB83EA8349915991CA
:10391000C40FD51FEC17FD0761F4808191810296D9
:10392000840F951FE90199838883828193819B830A
:103930008A83F0E0E0E012968D919C9113970097B6
:10394000B9F52D913C911197CD010296820F931FED
:103950002091A2033091A3032817390739F6309735
:1039600051F51092A5031092A403B093A303A09362
:10397000A203BCCFD383C28340815181840F951FA2
:10398000C817D90761F44E5F5F4F88819981480F4E
:10399000591F518340838A819B81938382832115A0
:1039A000310509F0B0CFF093A503E093A4039ECFB7
:1039B000FD01DC01C0CF13821282D7CFB0E0A0E0BE
:1039C000E4EEFCE10C940E1B8C01009751F4CB014A
:1039D0000E94B91B8C01C801CDB7DEB7E0E10C94A1
:1039E0002A1BFC01E60FF71F9C0122503109E21748
:1039F000F30708F49DC0D901CD91DC911197C6174A
:103A0000D70798F0C530D10530F3CE01049786175B
:103A1000970708F3C61BD70B2297C193D1936D93D9
:103A20007C93CF010E94551CD6CF5B01AC1ABD0A16
:103A30004C018C0E9D1EA091A403B091A503512CA6
:103A4000412CF12CE12C109731F58091A20390913B
:103A5000A3038815990509F05CC04616570608F0BF
:103A600058C080911F0190912001009741F48DB7BB
:103A70009EB74091230150912401841B950BE817B8
:103A8000F90708F055C0F093A303E093A203F901EE
:103A900071836083A0CF8D919C91119712966C9049
:103AA000129713967C901397A815B90559F56C01D8
:103AB00042E0C40ED11CCA14DB0420F1AC014A1947
:103AC0005B09DA011296159780F062827382518346
:103AD0004083D9016D937C93E114F10471F0D70117
:103AE0001396FC93EE93129776CF22968C0F9D1F20
:103AF000F90191838083F301EFCFF093A503E09365
:103B0000A40369CF4816590608F42C017D01D3019E
:103B10009ACFCB010E94B91B7C01009749F0AE01FE
:103B2000B8010E94A01DC8010E94551C870153CFF7
:103B300010E000E050CF81E090E0F8940C94B91DC3
:103B4000FB01DC0102C001900D9241505040D8F7BA
:103B50000895FB01DC018D91019080190110D9F3CA
:103B6000990B0895FB01DC0101900D920020E1F713
:063B70000895F894FFCF58
:103B7600FFFFFFFF00E10000000000000100010060
:103B8600010001000100010000C180810000000069
:103B960000A603800000000000560D560D560D04C9
:103BA6000D000DFD0C000000008B0C2F0C2D0C04DD
:103BB6000D000D9602CC090000000083031706993C
:103BC600038602E0039E03BC0300000000A1071A5F
:103BD60008DF07C4070000000088024B070D0A0033
:103BE60053545257484C5F534D4C0039306162353F
:103BF6003137622D643038312D343834392D3965FA
:103C060065352D626265356366393536633766001C
:103C160047004E0049004A00500058004D65737336
:103C2600616765207265636569766564203A200080
:103C36006D637574797065006B656570616C697626
:023C4600650017
:00000001FF
